:100000000C94E70A0C940F0B0C940F0B0C940F0B31
:100010000C940F0B0C940F0B0C940F0B0C940F0BF8
:100020000C940F0B0C940F0B0C948B150C94FD156A
:100030000C940F0B0C940F0B0C940F0B0C940F0BD8
:100040000C940F0B0C940F0B0C940F0B0C940F0BC8
:100050000C940F0B0C940F0B0C940F0B0C94A20B25
:100060000C940F0B0C940F0B0C940F0B0C940F0BA8
:100070000C940F0B0C940F0B0C940F0B0C940F0B98
:100080000C940F0B0C940F0B0C940F0B0C940F0B88
:100090000C940F0B0C940F0B0C940F0B0C940F0B78
:1000A0000C940F0B0C94EE100C940F0BF0F89C8E2C
:1000B0008783878E9CF8F00000FEFF030303030391
:1000C000070EFCF80000FEFF0303030303070EFC0A
:1000D000F80000FFFF00000000000000FFFF00002C
:1000E000FEFF8383838383C7EE7C380000F8FC0E19
:1000F00007030303070EFCF800003F7FE0C0808089
:10010000C0E07F3FFFFF01010101010101FFFF008E
:1001100000FFFF0C0C0C0C1C3E77E3C100007FFFBE
:10012000C0C0C0C0C0E0703F1F00001F3F70E0C0F3
:10013000C0C0E0703F1F00007FFFC1C1C1C1C1E36B
:10014000773E1C00001F3F70E0C0C0C0E0703F1F42
:10015000000000000001FFFF01000000D5F08D1439
:10016000A1C881CFD9F1AF200009000009000A0021
:100170000B00100016001D0027005C0000010203A8
:100180009D184040FC07FC009F9F9FFC08FC039FBC
:100190004020A04000FE402041F0A143FE49044021
:1001A0002041F8A34A43FE1AA000A51AA000A21DF0
:1001B000A000A012A000A021A000A622A000A02EB6
:1001C000A000A017A000A21AA000A21CA000A624B4
:1001D000A000A21CA000A622A000A7FEFC04A1FC77
:1001E00005A5FC05A9FC06A3FC04AAFC06A7FC06C1
:1001F000A4FE80400000000000000000000000009D
:10020000000000000080808080C0C0C0C0C0C0E08E
:1002100060606060606060606060606060606060DE
:1002200060606060606060606060607070703030FE
:10023000707030303030303030303030303030303E
:1002400030303030303030303030B898989898189E
:1002500018181818D8D8D8D8989CFCF800000000B6
:10026000000000000000000000000000000000008E
:10027000000000000000000000000000000000007E
:10028000000000001FFFFB01F1F91D0C848080803D
:1002900080F0FC9CBCF8E0800080FCFCF8C0FCFE18
:1002A000FEE08000FFFEC6C6C6C6C6060600000009
:1002B00000000000FEFE8E0607030303030FFEF896
:1002C000060E7CF8C0E0FF3F003FFFEF8D8DCCCCE9
:1002D000CC840000FF3F3C7FE7C307FFFE00000027
:1002E000000000000000000000000000000000000E
:1002F00000000000000000000000000000000000FE
:1003000000000000003FFFF0011F3F3071733B1FF2
:100310000F1F1F01010101070F1F1F0101070F1F01
:10032000000107070F7F7860606060606060000018
:10033000000000000001070F1C18181C0C0E07011C
:1003400000000001070F0700008081C1C1E161606A
:1003500070303030383818181818181F1F00000077
:10036000000000000000000000000000000000008D
:10037000000000000000000000000000000000007D
:10038000000000000000033F3E303030383838387D
:100390003830303030303060E0C0C0808000000045
:1003A000000000000000000000000000000000004D
:1003B000000080800000600000000000006000007D
:1003C00080C0E07038180C0E070301010000000027
:1003D000000000000000000000000000000000001D
:1003E000000000000000000000000000000000000D
:1003F00000000000000000000000000000000000FD
:1004000000000000000000000000000000000000EC
:100410000000000000000000000001C1C3C7868C7E
:100420001C3870E0C00070F0F00000008080030015
:100430000021230333F8F8F0FCFEFFFE781C0E07C2
:100440000301008080808080000000000000000028
:10045000000000000000000000000000000000009C
:10046000000000000000000000000000000000008C
:10047000000000000000000000000000000000007C
:10048000000000000000000000000000000000006C
:10049000000000000080C0C0C0C0C0C1C1C3C3C351
:1004A000C3C0C00003071E38F8F8F8FEFFFFFFDEE8
:1004B000800020063C3E3F1F1FFFFF0100006066DA
:1004C00066E7E7C7870F0F0707000000000000007E
:1004D000000000000000000000000000000000001C
:1004E000000000000000000000000000000000000C
:1004F00000000000000000000000000000000000FC
:1005000000000000000000000000000000000000EB
:10051000000000000007070707030101000000F0CA
:10052000F8FCFCFE0E06000000010FFFFF7F27070E
:100530000F8FC6E6E0F1F9FCFEFFFF00000040E08F
:10054000C081030301000000000000000000000063
:10055000000000000000000000000000000000009B
:10056000000000000000000000000000000000008B
:10057000000000000000000000000000000000007B
:10058000000000000000000000000000000000006B
:100590000000000000000000000000000000000358
:1005A000030301000000000000000003070E0C0C14
:1005B0000C0F0F07070707070707010000000000DF
:1005C0000F1F1F0E000000000000000000000000D0
:1005D000000000000000000000000000000000001B
:1005E000000000000000000000000000000000000B
:1005F000000000008040000000000000000000003B
:1006000000000000000000000000000000000000EA
:1006100000000000000000000000000000000000DA
:1006200000000000000000000000000000000000CA
:1006300000000000000000000000000000000000BA
:10064000C0F878100000000000000000000000006A
:10065000000000000000000000000000000000009A
:10066000000000000000000000000000000000008A
:10067000000000000000000000000000000000007A
:10068000000000F0FC00000000000000000000007E
:10069000000000000000000000000000000000005A
:1006A000000000000000000000000000000000004A
:1006B0007CFCFC38F0C0800000000000000000FE60
:1006C000FF03000000000000000000000000000028
:1006D000000000000000000000000000000000001A
:1006E000000000000000000000000000000000000A
:1006F00000000000000000000000000000000000FA
:10070000000000FFFF0000000000000000000000EB
:10071000000000000000E6FF3F00000000000000B5
:100720000000C0F0F0E0E0C00000000000000000A9
:1007300000FFFF000003071EFCF08000000000FF28
:10074000FF000000000000000000000000000000AA
:100750000000000000000000F0F0000000000000B9
:100760000000000000000000000000000000000089
:100770000000000000000000000000000000000079
:10078000000000FFFF00000000000080FCFCFC00F7
:10079000000000000000FFFF00000000000000005B
:1007A0000000010303030303000000000000000039
:1007B00000FFFF00000000000001071FFCF0E0FF49
:1007C000FF0000000000000000000000000000002A
:1007D0000000000000000000FFFF0000000000001B
:1007E0000000000000000000000000000000000009
:1007F00000000000000000000000000000000000F9
:10080000000000FFFF000000F8FE0F030101FFFFE2
:100810008000000080F8FF070000000000000000DA
:10082000000000F0C0000000000000000000000018
:1008300000FFFF0000000000000000000001070FA3
:100840000F04000000000000000000000000000095
:1008500000000000000000000F0F0000000000007A
:100860000000000000000000000000000000000088
:100870000000000000000000000000000000000078
:100880000000000103070E07030100000000077FBE
:10089000FFE0E0FC3F070000000000000000000057
:1008A0000000001F1F00000000000000000000000A
:1008B000020703000000000000000000000000002C
:1008C0000000000000000000000000000000000028
:1008D00000000000000000003030000000000000B8
:1008E0000000000000000000000000000000000008
:1008F00000000000000000000000000000000000F8
:1009000000000000000000000000000000000000E7
:1009100000000100000000000000000000000000D6
:1009200000000000000000000000000000000000C7
:1009300000000000000000000000000000000000B7
:1009400000000000000000000000000000000000A7
:100950000000000000000000000000000000000097
:100960000000000000000000000000000000000087
:100970000000000000000000000000000000000077
:100980000000000000000000000000000000000067
:100990000000000000000000000000000000000057
:1009A0000000000000000000000000000000000047
:1009B0000000000000000000000000000000000037
:1009C0000000000000000000000000000000000027
:1009D0000000000000000000000000000000000017
:1009E0000000000000000000000000000000000007
:1009F000000000000000080800307CFFDE783000B6
:100A00000808030D11E1E1110D030840FD01050186
:100A1000000101FDFF000000000000FFFF000000DA
:100A2000000000FFFF000000000000FFFF000000CA
:100A3000000000FFFF000000000000FFFF000000BA
:100A4000000000FFFFF0E0C0C0E0F0FF0840FD0143
:100A5000FDFDFDFD01FDFF00FFFFFFFF00FFFF00AB
:100A60001F0F3F1F00FFFF000000000000FFFF00FE
:100A70000000000000FFFF000000000000FFFF007A
:100A80000000000000FFFFF0E0C0C0E0F0FF084001
:100A9000FD01FDFDFDFD01FDFF00FFFFFFFF00FF6C
:100AA000FF00BFFFBFFF00FFFF00FFFFFFFF00FFD2
:100AB000FF00FFFFFFFF00FFFF000103000100FF39
:100AC000FF000000000000FFFFF0E0C0C0E0F0FF0A
:100AD0000840FD01FDFDFDFD01FDFF00FFFFFFFFE3
:100AE00000FFFF00BFFFBFFF00FFFF00FFFFFFFF92
:100AF00000FFFF00FFFFFFFF00FFFF00FBFFFBFF0A
:100B000000FFFF00FFFFFFFF00FFFFF0EFDFDFEF61
:100B1000F0FF1010FF8F67A72B6B6B2B6B2B2B6BD2
:100B2000A7678FFFFFFFFCF8F0E0C08080C0E0F017
:100B3000F8FCFFFF1010FF8F67E7EB6BEBEB6BEB45
:100B40006BEBE7678FFFFFFFFCFAF1E2C08180C02B
:100B5000E0F1FAFCFFFF1010FF8F67E7EBEBEBEB28
:100B6000EBEBEBEBE7678FFFFFFFFCFAF5E3C183ED
:100B7000A0C3E1F5FAFCFFFF1010FF8F67E7EBEB76
:100B8000EBEBEBEBEBEBE7678FFFFFFFFCFAF5E33B
:100B9000DFBFBFDFE3F5FAFCFFFF1010FF9F03F894
:100BA000DCDCFCFEDCFCFCF0C3031F3FFFFFFFFDB1
:100BB000E7DFB5B7F7FF2FF9FFFF80001010A7C3DD
:100BC000E1B1581CBCF0E8B8593193CF3FFFFEFDAE
:100BD000F7DFFFEF47C445EFBFEFFFFBFFFF8040AC
:100BE000FFFFFFFFFFFFFFFFFFFFFFFFFFFFFFFF15
:100BF000FFFFFFFFFFFFFFFFFFFFFFFFFFFFFFFF05
:100C0000FFFFFFFFFFFFFFFFFFFFFFFFFFFFFFFFF4
:100C1000FFFFFFFFFFFFFFFFFFFFFFFFFFFFFFFFE4
:100C2000FFFFFFFFFFFFFFFFFFFFFFFFFFFFFFFFD4
:100C3000FFFFFFFFFFFFFFFFFFFFFF7F7F7F7FFFC4
:100C4000FFFFFFFFFFFFFFFFFFFFFFFFFFFFFFFFB4
:100C5000FFFFFFFFFFFFFFFFFFFFFFFFFFFFFFFFA4
:100C6000FFFFFFFFFFFFFFFFFFFFFFFFFFFFFFFF94
:100C7000FFFFFFFFFFFFFFFF7F3F1F1F0F8F8F8FC4
:100C800087C7C7EFFF0F0F3F1F1F9F9F1F1FC7F390
:100C90001F1F1FFFFF1F1FFFFF1F1F1F9F9F1F1FE4
:100CA000FFFF7F1F1F9F9F9F9F9FFFFF1F1F1F9F74
:100CB0001F1F3FFFFFFFFFFFFFFF8080BE3E7E7EC6
:100CC0007CFCFDFDFDFDFBFBFBFBFBFBFBFBF3F3FA
:100CD000F3F7F7F7E7E7E7E7E707FFFFFFFFFFFFB8
:100CE000FFFFFFFFFFFFFFFFFFFFFFFFFFFFFFFF14
:100CF000FFFFFFFFFFFFFFFD00007EFFFFFFFFFF85
:100D0000FFFFFFFFFFFCF8E0C00007C3000EFFFF7E
:100D1000000000FFFF0000FFFF000000E7E7E0E049
:100D2000FFFF000000E7E7FFFFFFFFFF0000E7E72E
:100D300000003CFFFFFFFFFFFFFFFFFFFFFFFFFF84
:100D40007E3E39FBE3810103079FFFFF3F3F1FDF2B
:100D5000EFE7F3FBF9F9F9FBFBF8FFFFFFFFFFFFFC
:100D6000FFFFFFFFFFFFFFFFFFFFFFFFFFFFFFFF93
:100D7000FFFFFFFFFFFFFFFFFFFEFCF9F1F9F9F9AD
:100D8000F9F9F9FC7F3F8FE1F8E0C01878FCFFFF2C
:100D9000FCF8F8F9F8F8F8FFFFF8F8F8FFFFFFFFA4
:100DA000FFFFFEF8F8F9F9F9F9F9FFFFF8F8FFFF8E
:100DB000F8F8F8FFFFFFFFFFFFFFFFFFFFFFFFF85F
:100DC000F8F8FFFFFF1F7CF8F8F8F8F87878FFFFD5
:100DD000FFF9F9F1F7FFFFFFFFFFFFFFFFFFFFFF45
:100DE000FFFFFFFFFFFFFFFFFF0F0F0FCFCF0F0F23
:100DF000CFCF0F0F1FFFFF1F0F8FCF0F0F1FFFFF53
:100E00000F0301CDCE0F1FFFFF1F0F0FCCC3C7CFA6
:100E10009FFFCFCFCF0F0FCFCFCFFFFF0F0FCFCF82
:100E20000F0F1FFFFF0F0FFFFF0F0F0FFFFF1F0F12
:100E30000FCFCFCFCFFFFF0F0F0FFFFFFFFFFFFF42
:100E40000F0F0FFFFFFFFCFCFFFF0F0FCFCEC8C936
:100E5000C9F9F9FFFFFFFFFFFFFFFFFFFFFFFFFFE4
:100E6000FFFFFFFFFFFFFFFFFF000000FFFF00008D
:100E7000FFFF000000FFFF00007F7F000000FFFF7A
:100E8000000000FFFF0000FFFF7870707373030322
:100E9000FFFFFFFFFF0000FFFFFFFFFF0000F3F376
:100EA00000001EFFFF00007F7F000000FFFF00002A
:100EB0000073737F7FFFFF0000007F7F7F7FFFFF56
:100EC0000000007F7F7F7FFFFFFF000073737F7F45
:100ED000FFFFFFFFFFFFFFFFFFFFFFFFFFFFFFFF22
:100EE000FFFF7F7F7F7F7FFFFFFC7C7CFFFF7C7CA1
:100EF000FFFFFC7C7C7F7F7EFCFC7C7CFCFE7F7F9C
:100F0000FCFCFCFFFFFCFCFFFFFCFC7C7C7C7C7C95
:100F1000FFFFFFFFFFFCFCFFFFFFFFFFFCFCFFFFED
:100F2000FCFC7C7F7F7E7C7CFCFCFC7E7F7F7E7C6F
:100F3000FCFCFCFCFCFFFF7C7C7C7C7CFCFC7F7F65
:100F40007C7C7C7CFCFCFC7C7F7F7C7CFCFCFC7CDB
:100F50007C7F7F7FFFFF7F7F7F7F7F7FFFFFFFFFA4
:100F6000FFFFE0E0FBFBF8FCFFFFE0E0EFEFE0E07D
:100F7000FFFFF8E8EBEBE3E3FFFFE0E0FBFBE0E083
:100F8000FFFFFFFFFFFFFFFFFFFFE1E0FBFBE0E0F4
:100F9000FFFFFFFFFFFFFFFFFFFFFFFFFFFFFFFF61
:100FA000FFFFFFFFE0E0FFFFFFFFE0E0EFEFE0E02B
:100FB000FFFFFFFFFFFFFCE8EBEBE3E3FFFFFFFFBB
:100FC000E0E0FFFFFFFFE0E0FBFBE0E0FFFFE0E031
:100FD000FBFBE0E4FFFFFFFFE0E0FFFFFFFFFFFFA1
:100FE00000000000003E5B4F5B3E3E6B4F6B3E1CC3
:100FF0003E7C3E1C183C7E3C181C577D571C1C5EDA
:101000007F5E1C00183C1800FFE7C3E7FF001824B0
:101010001800FFE7DBE7FF30483A060E262979295A
:1010200026407F050507407F05253F5A3CE73C5A8F
:101030007F3E1C1C08081C1C3E7F14227F22145F6C
:101040005F005F5F06097F017F006689956A6060C7
:1010500060606094A2FFA29408047E040810207EC1
:10106000201008082A1C08081C2A08081E10101046
:10107000100C1E0C1E0C30383E3830060E3E0E068C
:10108000000000000000005F0000000700070014DF
:101090007F147F14242A7F2A12231308646236499E
:1010A0005620500008070300001C22410000412286
:1010B0001C002A1C7F1C2A08083E0808008070308B
:1010C00000080808080800006060002010080402FA
:1010D0003E5149453E00427F400072494949462100
:1010E00041494D331814127F1027454545393C4A74
:1010F000494931412111090736494949364649498B
:10110000291E0000140000004034000000081422D2
:101110004114141414140041221408020159090640
:101120003E415D594E7C1211127C7F494949363E41
:10113000414141227F4141413E7F494949417F0927
:101140000909013E414151737F0808087F00417F32
:1011500041002040413F017F081422417F40404030
:10116000407F021C027F7F0408107F3E4141413EC8
:101170007F090909063E4151215E7F09192946264A
:101180004949493203017F01033F4040403F1F204E
:1011900040201F3F4038403F631408146303047825
:1011A00004036159494D43007F4141410204081045
:1011B00020004141417F0402010204404040404080
:1011C000000307080020545478407F2844443838EE
:1011D00044444428384444287F3854545418000860
:1011E0007E090218A4A49C787F0804047800447D3A
:1011F00040002040403D007F1028440000417F40D7
:10120000007C047804787C0804047838444444382A
:10121000FC1824241818242418FC7C08040408480A
:101220005454542404043F44243C4040207C1C205B
:1012300040201C3C4030403C44281028444C9090B6
:10124000907C4464544C4400083641000000770010
:1012500000004136080002010204023C2623263C1D
:101260001EA1A161123A4040207A385454555921A8
:101270005555794121545478412155547840205492
:101280005579400C1E5272123955555559395454DE
:10129000545939555454580000457C410002457D4D
:1012A000420001457C40F0292429F0F0282528F04F
:1012B0007C545545002054547C547C0A097F4932A3
:1012C000494949323248484832324A4848303A411E
:1012D00041217A3A42402078009DA0A07D394444C3
:1012E00044393D4040403D3C24FF2424487E49434E
:1012F000662B2FFC2F2BFF0929F620C0887E0903BF
:1013000020545479410000447D413048484A3238E5
:101310004040227A007A0A0A727D0D19317D262911
:10132000292F28262929292630484D402038080809
:10133000080808080808382F10C8ACBA2F1028343D
:10134000FA00007B000008142A142222142A140830
:101350009500220095AA005500AAAA55AA55AA00F0
:101360000000FF00101010FF00141414FF001010F4
:10137000FF00FF1010F010F0141414FC001414F708
:1013800000FF0000FF00FF1414F404FC14141710F5
:101390001F10101F101F1414141F00101010F00045
:1013A0000000001F101010101F10101010F010007F
:1013B0000000FF101010101010101010FF1000008F
:1013C00000FF140000FF00FF00001F10170000FCCA
:1013D00004F414141710171414F404F40000FF009C
:1013E000F714141414141414F700F7141414171425
:1013F00010101F101F141414F4141010F010F0002B
:10140000001F101F0000001F14000000FC1400004B
:10141000F010F01010FF10FF141414FF141010102F
:101420001F00000000F010FFFFFFFFFFF0F0F0F0E2
:10143000F0FFFFFF0000000000FFFF0F0F0F0F0F76
:1014400038444438447C2A2A3E147E0202060602AE
:101450007E027E0263554941633844443C04407E29
:10146000201E2006027E020299A5E7A5991C2A49A2
:101470002A1C4C7201724C304A4D4D30304878482D
:1014800030BC625A463D3E494949007E0101017E19
:101490002A2A2A2A2A44445F444440514A4440406C
:1014A000444A51400000FF0103E080FF00000808AB
:1014B0006B6B083612362436060F090F060000182B
:1014C000180000001010003040FF0101001F010152
:1014D0001E00191D1712003C3C3C3C00000000009F
:1014E000000006011501260137014A015D01720164
:1014F00088019F01B801D201EE010B022A024B02C2
:101500006E029302BA02E40210033F037003A403C5
:10151000DC03170455049704DD0427057505C80589
:1015200020067D06E0064907B8072D08A9082D0901
:10153000B9094D0AEA0A900B400CFA0CC00D910E45
:101540006F0F5A1053115B1272139A14D41520178F
:101550008018F519801B231DDE1EB420A622B52499
:10156000080B00020202010009040000010202004F
:1015700000052400100105240101010424020605D0
:101580002406000107058103100040090401000240
:101590000A00000007050202400000070583024020
:1015A00000000403090412010002EF02014041237C
:1015B000368000010102030141726475696E6F207B
:1015C0004C4C430041726475626F79002D1D1124EB
:1015D0001FBECFEFDAE0DEBFCDBF11E0A0E0B1E08B
:1015E000E0E9FFE302C005900D92A234B107D9F7FC
:1015F00026E0A2E4B1E001C01D92A03DB207E1F7F0
:101600001AE0C7EEDAE004C02197FE010E94BB1F7A
:10161000C63ED107C9F70E942D180C94C61F0C9422
:101620000000CF92DF92EF92FF920F931F93CF9320
:10163000DF936C017A018B01C0E0D0E0CE15DF05AD
:1016400089F0D8016D918D01D601ED91FC91019049
:10165000F081E02DC6010995892B11F47E0102C0AD
:101660002196ECCFC701DF91CF911F910F91FF9091
:10167000EF90DF90CF9008950895089580E090E076
:1016800008950E94C11F3FB7F89480914F02909136
:101690005002A0915102B091520226B5A89B05C0FC
:1016A0002F3F19F00196A11DB11D3FBFBA2FA92FE1
:1016B000982F8827820F911DA11DB11DBC01CD015E
:1016C00042E0660F771F881F991F4A95D1F708954A
:1016D0008F929F92AF92BF92CF92DF92EF92FF9242
:1016E0006B017C010E94430B4B015C01C114D104CE
:1016F000E104F104F1F00E94430BDC01CB018819F5
:101700009909AA09BB09883E9340A105B10570F368
:1017100021E0C21AD108E108F10888EE880E83E0C2
:10172000981EA11CB11CC114D104E104F10419F7E5
:10173000DDCFFF90EF90DF90CF90BF90AF909F9064
:101740008F9008951F920F920FB60F9211242F932E
:101750003F938F939F93AF93BF9380913802909163
:101760003902A0913A02B0913B0230914E0223E03F
:10177000230F2D3720F40196A11DB11D05C026E8C9
:10178000230F0296A11DB11D20934E0280933802B3
:1017900090933902A0933A02B0933B0280914F029A
:1017A00090915002A0915102B09152020196A11D58
:1017B000B11D80934F0290935002A0935102B093B9
:1017C0005202BF91AF919F918F913F912F910F90B6
:1017D0000FBE0F901F9018952091450190914601E2
:1017E000E22FF92FE80FF11DE80FF11D859194917B
:1017F0002091430130914401820F931F08952F924D
:101800003F924F925F926F927F928F929F92AF9290
:10181000BF92CF92DF92EF92FF920F931F93CF93DD
:10182000DF93CDB7DEB764970FB6F894DEBF0FBE77
:10183000CDBF2EE531E03C8B2B8B05E811E027E492
:1018400031E038872F8333E8E32E31E0F32E4BE885
:10185000C42E41E0D42E5DE8452E51E0552E67E8B8
:10186000262E61E0362E26E831E03A87298729E8DE
:1018700031E03C832B837EE8A72E71E0B72E21E870
:1018800031E03E832D83E2E86E2EE1E07E2E20E6FD
:1018900031E03A832983812C912C1B86AB89BC894A
:1018A0009E96EC91EE23F1F0D2018C91482F50E0FE
:1018B0002E2F237030E0421753078CF0F0E0F5959F
:1018C000E795F595E795EE0FFF1FE052FB4E8591EA
:1018D0009491EF81F885928381831C9203C08F5F7E
:1018E000F2018083AB89BC89D4969C91D4979923CB
:1018F00009F43DC0D5968C91482F50E0292F2F77C1
:10190000022E000C330B421753076CF197FF06C0F1
:10191000E981FA8180818150808305C0A981BA81E3
:101920008C918F5F8C93E981FA818081811103C052
:1019300081E0808306C0803420F08FE3A981BA81E2
:101940008C93A981BA81EC91F0E0EE0FFF1FE05279
:10195000FB4E85919491F70191838083AB89BC897B
:10196000D5961C9204C08F5FEB89FC8985ABA98555
:10197000BA855C915523D9F1EB89FC8922A5211107
:1019800028C0D1013C91432F407436FF04C0F701B9
:101990008081918103C0D8018C9190E0850F911DC9
:1019A00057FD9A9537FD0DC097FD09C0442379F086
:1019B000863BB4E29B073CF085EB94E204C080E0F8
:1019C00090E0442321F0F7019183808302C0D80185
:1019D0008C9381E0820FEB89FC8982A730E0D101F2
:1019E0008C918F7390E0281739070CF012A6EB81C9
:1019F000FC816081662309F44AC0A981BA819C9167
:101A0000992309F444C0F6018081AB89BC899C9676
:101A10007C91482F4F7150E0272F2F7130E04217F3
:101A200053071CF48F5F808332C0807E21F480E2F4
:101A3000F60180830BC0803239F476FD05C06F3F1C
:101A400019F080E4808302C0F6011082D6018C91E7
:101A5000807E69F06F3F29F0262F22952F70920F1C
:101A600001C090E0803419F4862F8F70980FD50153
:101A7000EC910E2E000CFF0BE90FF11DEE0FFF1F76
:101A8000E052FB4E85919491F70191838083AB895D
:101A9000BC89D1964C91D197442309F447C0D29682
:101AA0003C91632F607436FF04C0F70180819181FF
:101AB00003C0D8018C9190E0EB89FC8923A950E008
:101AC00027FF03C0840F951F02C0841B950B97FD51
:101AD00009C0662379F0863BF4E29F073CF085EB72
:101AE00094E204C080E090E0662321F0D7018D935A
:101AF0009C9302C0F8018083422F4F7150E03F71E8
:101B0000832F90E04817590734F42F5FAB89BC89C5
:101B1000D3962C930BC027FF04C0EB89FC8913AA32
:101B200005C080E8AB89BC89D3968C93EB89FC898E
:101B300081A192A1009709F097C2C4010496B1E077
:101B400001C0BB0F8A95EAF7B88B4BE1489D900125
:101B5000499D300D11243D872C87A6E3A89DC00127
:101B6000A99D900D11249C01225A3E4F3F872E873C
:101B7000AB89BC898D919C911197BC016F5F7F4FA0
:101B80006D937C93FC014491403428F5A981BA817E
:101B90004C93442321F0F5018081480F4C93A98197
:101BA000BA81EC91F0E0EE0FFF1FE052FB4E859101
:101BB0009491F70191838083D1018C91811104C0AC
:101BC000F2018081D8018C93EB89FC8984A585FF83
:101BD00044C2D60136C1403A08F06DC1242F30E02E
:101BE000205431092C30310509F4E0C00CF050C00C
:101BF0002530310509F4ACC0BCF42230310509F4BC
:101C0000A7C04CF42115310509F485C021303105F8
:101C100009F48DC022C22330310509F4ABC0243051
:101C2000310509F484C019C22830310509F4A5C072
:101C3000E4F42630310509F49DC02730310509F060
:101C40000CC2FB016491AB81BC816C939C012D5F44
:101C50003F4FEB89FC8931832083FC013296E4916C
:101C6000AB89BC899C96EC93F8C12A30310509F404
:101C700088C002962B3031050CF088C0AB89BC8936
:101C800011969C938E93FB0164919E966C93E5C193
:101C90002331310509F4C2C0ACF42F30310509F409
:101CA000ACC04CF42D30310509F48AC02E3031051A
:101CB00009F488C0D2C12131310509F49EC00CF06D
:101CC000A1C080C02C35310509F4BDC05CF42431BD
:101CD000310509F4A7C02531310509F0BEC1AB813A
:101CE000BC81AFC02E35310509F4D0C00CF4BBC0A7
:101CF0002F35310509F0B1C1809100012889822773
:101D000080930001D8011C922FEF3FEFEB89FC89F3
:101D100032A321A3A2C10296EB89FC89918380831F
:101D2000FB016491D8016C93F201608396C1029625
:101D3000AB89BC898D939C93FB016491A985BA857D
:101D40006C93413411F080E401C080E0F1016CC17A
:101D5000FB016491A985BA856C939C012D5F3F4F6F
:101D6000EB89FC8931832083FC013296E491D10117
:101D7000EC9373C1E985FA8502C0EB81FC81108286
:101D80006CC1AB89BC899E961C9267C1EB89FC89AA
:101D900091838083FB016491D5018C91062E000C08
:101DA000770B680F711D87FD7A9508C00296EB8945
:101DB000FC8991838083FB016491D5016C934DC1B3
:101DC000F501DDCFFB0125913491AB89BC89D1961A
:101DD0002C93D1979C012D5F3F4F2D933C93FC0199
:101DE0003296859194914E3411F020E401C020E0A8
:101DF000820FEB89FC8982AB30C1AB89BC89D1965B
:101E00001C922BC10296EB89FC8991838083FB0194
:101E10006491AB89BC89D4966C931FC1EB89FC8912
:101E200014AA1BC1EFEFAB81BC81EC930296AB8986
:101E3000BC8911969C938E93FB0164919C966C9344
:101E40000CC11C920AC10296EB89FC8991838083A4
:101E5000FB01649180915D0170E0680F711D6093DA
:101E60005D0177270AC00296AB89BC898D939C934C
:101E7000FB01649160935D0170E089E09DE30E9445
:101E8000931F70935C0160935B01E7C020E030E03A
:101E9000FB014491F901E25AFE4F40A32A5C3F4FF7
:101EA0006F5F7F4F283D310599F70596AB89BC8957
:101EB0008D939C93D2C0403E50F450E04F5951094D
:101EC000AB89BC8992965C934E939197C6C0403E75
:101ED000C1F4AB89BC8980E090E09695982F882763
:101EE00097958795ED91FD91E4912E2F2F77822B79
:101EF000E7FDF3CF8F5B9F4FEB89FC8992A381A312
:101F0000ACC04C3F08F4A9C024E0240F223008F0F4
:101F100049C04C3F41F00296AB89BC898D939C939C
:101F2000FB01649101C060E0AB89BC89ED91FC913B
:101F300011979F012F5F3F4F2D933C93E491D30165
:101F40005C91E51759F1AB89BC895F964C91842F60
:101F500090E0AD81BE817C91AE85BF85A80FB91F91
:101F600051967C93519758965C93AC85BD85A80F8C
:101F7000B91FAA0FBB1FA25ABE4F80914301909177
:101F80004401281B390B14963C932E9313974F5FF3
:101F9000AB89BC895F964C93D301EC93ED81FE81B4
:101FA000608313C04E3F09F041C0AD81BE818C916A
:101FB000811107C0AB89BC895F96EC91EE2329F0B3
:101FC0000DC08150ED81FE818083D3018C910E94F0
:101FD000EC0BEB89FC89918380833FC0E150AB8996
:101FE000BC895F96EC93F0E0AC85BD85AE0FBF1F5A
:101FF000AA0FBB1FA25ABE4F80914301909144018A
:1020000013962D913C911497820F931FAB89BC8935
:102010008D939C932E853F85E20FF31F8189AD81BF
:10202000BE818C93808DF301808317C0AB89BC89FE
:1020300080E090E09695982F882797958795ED9169
:10204000FD91E4912E2F2F77822BE7FDF3CF680FC0
:10205000791FAB89BC896D937C93EB89FC8981A145
:1020600092A1009709F484CD8F3FFFEF9F0739F0CD
:102070000197AB89BC8992969C938E9391972091FE
:102080000001822F90E0082C02C0959587950A9454
:10209000E2F780FD15C03B85333041F4D8018C91C7
:1020A00090E095958795EF81F88509C0D7018D91CE
:1020B0009C91EF81F88592838183D8018C918083F4
:1020C000207F89F59091EA018091B401890F909168
:1020D0002002890F90917E01890FE9F02EE731E00F
:1020E000F9018081298B3A8B0E94EC0B29893A896E
:1020F000F901B09791838083D90112961C921E92A8
:1021000011972A5C3F4FB2E026353B0749F780EF35
:102110008093000108C088EDEEE5F1E011928A9508
:10212000E9F7109272002B852F5F2B873FEF831A00
:10213000930A2B893C892A5C3F4F3C8B2B8B0A5C92
:102140001F4F2F8138852B5F3F4F38872F8336E312
:10215000E30EF11C46E3C40ED11C86E3480E511C6D
:1021600096E3290E311C29853A852A5C3F4F3A8730
:1021700029872B813C812A5C3F4F3C832B8336E3AC
:10218000A30EB11C2D813E812A5C3F4F3E832D83DF
:1021900036E3630E711C29813A812A5C3F4F3A83F2
:1021A00029833B85343009F079CB64960FB6F894D7
:1021B000DEBF0FBECDBFDF91CF911F910F91FF907A
:1021C000EF90DF90CF90BF90AF909F908F907F90D7
:1021D0006F905F904F903F902F9008952F922FB661
:1021E0002F9320914D02209520934D0209F08BC032
:1021F000BF93AF930F921F92209152010090540110
:10220000020E009254012091530110905501121EAC
:1022100010925501B12DB7FDB095BB0FA0915101A2
:10222000B058BA02110CA12D2091480100904A012A
:10223000020E00924A012091490110904B01121E9A
:1022400010924B01212D220F2121B091470127FD32
:10225000B195AB0F20914D0100904F01020E0092FD
:102260004F0120914E0110905001121E109250010A
:10227000B0914C0117FCB195AB0FB1E00090570144
:1022800010905801000C111C17FC0B2616FC0B2695
:102290000092570110925801B091560117FCB19568
:1022A000AB0FB0910301AB0FA093CF00B0913702F9
:1022B000A0913602119729F0B0933702A09336020D
:1022C0001EC0B0915C01A0915B01B0933702A09356
:1022D000360278943F934F935F936F937F938F93DE
:1022E0009F93EF93FF9311240E94FF0BFF91EF91B7
:1022F0009F918F917F916F915F914F913F911F902F
:102300000F90AF91BF912F912FBE2F9018952D9ABE
:102310000895BC0180E090E00C94680B8FB180952B
:10232000807F669B88601C9B846008953E9A3F9ADC
:1023300081E080934201089590E1282F81E061FDC2
:1023400084E060FD880F62FD8295687F969FD001D2
:102350001124A20FA95ABD4F9C91982B40FF98279A
:102360009C9308952F923F924F925F926F927F922B
:102370008F929F92AF92BF92CF92DF92EF92FF9295
:102380000F931F93CF93DF93CDB7DEB727970FB689
:10239000F894DEBF0FBECDBFFC016A3069F4258919
:1023A0008189928938E0239F800D911D1124928BA1
:1023B000818B108A1786A6C06D3009F4A3C09F8355
:1023C0008E8335882489298333893A83618872888A
:1023D000E784F08880E8E816F104C4F0AE81BF819C
:1023E00055962C915597422F50E01F968D919C91B8
:1023F0005097B6E02B9F800D911D1124EE81FF8137
:10240000908B87872689211167C07CC0F0E46F1606
:10241000710424F7C70125E0329E800D911D11241F
:1024200018161906DCF6432C512CC30138E0339EF4
:10243000800D911D11241816190684F685E0689FF9
:10244000800111240052104F20E0F8012490253023
:1024500009F4212C430158E020FC02C0398101C05D
:102460003A8131110BC0F9818A81F81307C0269493
:102470005150840C951C5111EFCF25C067018C2D54
:102480008E198315A0F754018A2D88198315B8F485
:1024900090E8C916D10478F4A0E4AA16B10458F45F
:1024A000432FB501C6012C833B835D830E949C11A1
:1024B0005D813B812C81BFEFAB1ABB0AE5CFEFEF0B
:1024C000CE1ADE0ADCCF2F5FE40CF51C0F5F1F4F26
:1024D000263009F0BACF82CF6AEF64039001659F7E
:1024E000300D112420583F4F281739075CF4AE8176
:1024F000BF81ED91FC9111970190F081E02D6AE090
:10250000CD01099581E090E027960FB6F894DEBFE3
:102510000FBECDBFDF91CF911F910F91FF90EF9034
:10252000DF90CF90BF90AF909F908F907F906F90F3
:102530005F904F903F902F9008950C94F71D82E389
:102540008093010110923D0210923C0210923E02D3
:10255000109202010895FC0180915602811103C07E
:102560008FEF9FEF08959FB7F89482E08093E90082
:102570002091F20030E01216130614F421E030E04E
:102580002115310559F0289884E6809355028091F1
:10259000F10080838091F200882319F09FBFC90168
:1025A00008958BE68093E800F9CF2FB7F89483E085
:1025B0008093E9009091E800892F807295FF04C014
:1025C0009091F20080E4891B2FBF0895CF93DF9391
:1025D0001F92CDB7DEB76983DC01ED91FC910280DB
:1025E000F381E02D41E050E0BE016F5F7F4F099520
:1025F0000F90DF91CF91089583E08093E90080915F
:10260000F200882319F08AE38093E80008950E947D
:10261000D51290E00895CF93DF931F92CDB7DEB728
:10262000FC018485958597FD05C02FEF3FEF358729
:1026300024870BC0CE0101960E94AB12019719F4BA
:10264000898190E002C08FEF9FEF0F90DF91CF91D3
:1026500008950F931F93CF93DF931F92CDB7DEB7EB
:102660008C01FC018485958597FF0EC0CE010196F3
:102670000E94AB12019719F4298130E002C02FEFBC
:102680003FEFF80135872487F801848595850F9001
:10269000DF91CF911F910F9108958F929F92AF92EA
:1026A000BF92CF92DF92EF92FF920F931F93CF933F
:1026B000DF935C016B017A0180910B01882309F49F
:1026C0005BC080915602882309F456C08091540261
:1026D00080FF05C08091E00082608093E000E70108
:1026E00010E00AEF83E0882E9AE3992E2097D9F123
:1026F0000E94D51281110AC0015009F43DC061E069
:1027000070E080E090E00E94680BF0CF282F30E06E
:10271000C217D3070CF48C2F4FB7F8948092E900BE
:102720009091E80095FF1DC0282F30E0C21BD30B0D
:10273000F601982F915020F081918093F100FACF0B
:10274000C20ED31E112319F09092E80009C08091A7
:10275000E80085FD06C09092E80011E0209709F09E
:1027600010E04FBFC3CF1111C3CF5D9884E68093B3
:1027700053021E141F0444F081E090E0F50193839E
:10278000828380E090E001C0C701DF91CF911F916B
:102790000F91FF90EF90DF90CF90BF90AF909F9000
:1027A0008F9008958F929F92AF92BF92CF92DF92B7
:1027B000EF92FF920F931F93CF93DF9300D0CDB78B
:1027C000DEB7DC014115510509F4A7C0FA01D49028
:1027D000319634918D2C912C5C01A80CB91C1A14E3
:1027E0001B040CF09AC0803891050CF096C0CB0108
:1027F000830F911D181619060CF08FC060347105F7
:102800000CF08BC0F62FF770EF2ECB0177FD0796FB
:1028100023E0959587952A95E1F7F82F77FF04C077
:10282000EE2011F0FFEFF80FB7FF05C066277727FE
:102830006A1B7B0B02C060E070E000E8A016B104E8
:1028400024F080E8F82EFA1A01C0FD2CF61AAF2EFB
:102850000F2E000CBB08FF3F1CF4CA2CC09401C013
:10286000C12C91E0832F877009F490E0369536955E
:102870003695930FA90EB11C19E0A116B10414F0FE
:1028800098E09F1B8C2D8F0F9D01082F10E80103EE
:10289000200D311D1124260F371F4E5F5F4FCD9C39
:1028A000600D711D1124460F571F61E070E00E2C62
:1028B00002C0660F771F0A94E2F79F0F891769F12C
:1028C000D901A95ABD4FA12CB12CAF1400F5FA01C2
:1028D000EA0DFB1DE491E69F6001E79FD00C1124F7
:1028E000DA82C98287FD03C0EC91CE2ACC92EE2019
:1028F00049F087303CF4FD01E058FF4FC080DA809A
:10290000DC28D082EFEFAE1ABE0A1196DECF8F5FC1
:10291000480D591D20583F4FD1CF0F900F90DF9198
:10292000CF911F910F91FF90EF90DF90CF90BF90CC
:10293000AF909F908F90089580E0E7E5F2E08111DD
:102940008FEF002481938193819381930394D1F736
:10295000E7E5F6E0128A118A108A17860895E7E5FE
:10296000F2E0A0E0B8E000800EBC8111012C1197CC
:10297000A0FDFDCF0192B9F70DB408952091610635
:10298000282329F490916006982381E009F480E0DF
:1029900008958091720681110DC082E080936E06C9
:1029A00084E080936F06109271061092700681E0A9
:1029B000809372068EE696E00895FC0184859585E5
:1029C00097FD0BC09FB7F89482E08093E900809157
:1029D000F2009FBF90E0019608959FB7F89482E0BF
:1029E0008093E9008091F2009FBF90E008954091AC
:1029F000CE065091CF062091CC063091CD064217DD
:102A00005307B4F49091E8009570E1F39091E800D9
:102A100092FD19C08093F1008091CE069091CF066F
:102A200001968F739927892B19F48EEF8093E80014
:102A30008091CE069091CF0601969093CF06809319
:102A4000CE0681E0089580E00895DF92EF92FF9234
:102A50000F931F93CF93DF93D82E8A017B01E40E4F
:102A6000F51EEB01CE15DF0571F0D7FE03C0FE01A8
:102A7000849101C088810E94F71421968111F2CFC0
:102A80008FEF9FEF01C0C801DF91CF911F910F9190
:102A9000FF90EF90DF900895615030F02091F100A9
:102AA000FC0120830196F8CF289884E68093550294
:102AB00008950F931F93CF93DF931F92CDB7DEB787
:102AC00082E0898342E450E060E675E180E80E949C
:102AD00025150E94C914DC0112960D911C911397C3
:102AE0000115110569F0D801ED91FC910280F38187
:102AF000E02DBE016F5F7F4FC801099597FF07C0AA
:102B000089810F90DF91CF911F910F910895F80166
:102B100000851185E5CF1F920F920FB60F921124F9
:102B20008F939F938091E1009091E100937F909328
:102B3000E10083FF0FC01092E90091E09093EB0059
:102B40001092EC0092E39093ED001092560298E000
:102B50009093F00082FF20C093E09093E900909161
:102B6000F200992319F09AE39093E80090915302B0
:102B7000992339F0909153029150909353029923E5
:102B800089F190915502992339F090915502915015
:102B900090935502992341F184FF10C08091E20087
:102BA0008E7E81608093E2008091E1008F7E809331
:102BB000E100809154028E7E806111C080FF16C0BA
:102BC0008091E2008E7E80618093E2008091E1003E
:102BD0008E7E8093E100809154028E7E816080938E
:102BE000540204C05D9ACDCF289AD6CF9F918F9181
:102BF0000F900FBE0F901F9018951F920F920FB657
:102C00000F921124CF92DF92EF92FF920F931F93B6
:102C10002F933F934F935F936F937F938F939F93E4
:102C2000AF93BF93EF93FF93CF93DF93CDB7DEB70F
:102C30006C97DEBFCDBF1092E9008091E80083FF62
:102C4000EDC168E0CE0145960E944C1582EF80935D
:102C5000E8008D8987FF05C09091E80090FFFCCFC8
:102C600003C09EEF9093E800982F907609F0C6C0BD
:102C70009E892F89188D91110CC0803829F480917C
:102C8000CB068093F10002C01092F1001092F10087
:102C900048C1422F50E0512B913051F4811141C174
:102CA0004130510509F03DC18091CB068D7F0BC0AD
:102CB000933061F4811135C14130510509F031C1C2
:102CC0008091CB0682608093CB062BC1953041F476
:102CD0008091E80080FFFCCF20682093E30021C1B1
:102CE000963009F05FC0EB8CFC8C1092E9001092DA
:102CF000CF061092CE06123091F51092CD061092AA
:102D0000CC060E94591599E0BE016F5F7F4FDB0131
:102D1000E92F1D92EA95E9F799831A8391E09E8342
:102D200090EA98879AEF99872091CE063091CF0646
:102D3000275F3F4F3C832B838D831092E9001092D5
:102D4000CF061092CE06F092CD06E092CC0649E076
:102D500050E080E00E9425150E945915E2C0F092D3
:102D6000CD06E092CC060E94C914DC011296ED90CB
:102D7000FC901397E114F10409F4C0C0D701ED9160
:102D8000FC910480F581E02DBE016B5E7F4FC70191
:102D90000995009719F00CF0C4C0C7C0F701E08492
:102DA000F184E8CF973009F4C0C0983021F481E075
:102DB0008093F100B6C0993009F0B3C0837009F078
:102DC000B4C0EBE3F1E081E021E036E390819923A8
:102DD00061F08093E9002093EB0091919093EC00D7
:102DE0003093ED008F5F873089F78EE78093EA009C
:102DF0001092EA008F898093560293C08B8D9C8D30
:102E00001092E9001092CF061092CE069093CD0654
:102E10008093CC06898D811156C08E899D89913A07
:102E200059F4813209F081C047E050E064E071E07C
:102E300080E00E94251575C0913209F076C083327A
:102E400089F4888D90E0982F88272F89822BA0E025
:102E5000B0E080930C0190930D01A0930E01B0930C
:102E60000F015FC0803269F48091E80082FFFCCFDF
:102E700067E084E091E00E944C158BEF8093E800BE
:102E800006C0823209F04DC08F8980930B0180917A
:102E9000CA06882319F0EEEFFAE002C0E0E0F8E09D
:102EA0008091040190910501A0910601B091070164
:102EB000803B9440A105B10509F07BC080910B01D6
:102EC00080FF93C076C00E94C914DC0112960D9158
:102ED0001C9113970115110541F1D801ED91FC9159
:102EE0000190F081E02DBE016B5E7F4FC801099516
:102EF000811117C0F80100851185ECCF113009F45C
:102F00004EC0133091F48F89882309F445C0823074
:102F100081F440E867E084EC95E10E945E1D88231F
:102F200021F08EEF8093E80079C081E28093EB007E
:102F300075C0813029F440E86BE088EB95E1EDCF76
:102F4000833099F70E94C914DC011296ED90FC9031
:102F500013978E010F5F1F4F6801E114F10479F0A0
:102F6000D701ED91FC910680F781E02DB801C701F2
:102F70000995080F111DF701E084F184EECFD80107
:102F80001C92F60101900020E9F73197BF016C19FE
:102F90007D0940E0C601C1CF62EA75E102C066EA80
:102FA00075E16115710509F2FB01449150E080E87B
:102FB00040CF0FB6F894A895809160008861809307
:102FC0006000109260000FBEA895EE3F2AE0F20765
:102FD00039F08091FE0A9091FF0A91838083A1CFFE
:102FE0001092FF0A1092FE0A9CCFEE3F8AE0F8078B
:102FF00031F0808191819093FF0A8093FE0A87E7E8
:1030000097E7918380839BE088E10FB6F894A895B9
:10301000809360000FBE9093600083CF6C960FB6D4
:10302000F894DEBF0FBECDBFDF91CF91FF91EF913E
:10303000BF91AF919F918F917F916F915F914F91D0
:103040003F912F911F910F91FF90EF90DF90CF90C4
:103050000F900FBE0F901F901895789484B58260E2
:1030600084BD84B5816084BD85B5826085BD85B52C
:10307000816085BD80916E00816080936E001092AA
:103080008100809181008260809381008091810025
:1030900081608093810080918000816080938000B6
:1030A0008091910082608093910080919100816075
:1030B0008093910080919000816080939000809136
:1030C000C10084608093C1008091C10082608093C0
:1030D000C1008091C10081608093C1008091C300D4
:1030E00081608093C3008091C00082608093C000A3
:1030F0008091C20081608093C20080917A008460D8
:1031000080937A0080917A00826080937A00809127
:103110007A00816080937A0080917A008068809341
:103120007A00109256021092CB06109254028091AF
:10313000D70081608093D70080EA8093D80089B55A
:10314000806189BD89B5826089BD09B400FEFDCF6B
:1031500061E070E080E090E00E94680B8091D80010
:103160008F7C80618093D8008091E000807F809385
:10317000E0008091E1008E7E8093E1008DE08093FD
:10318000E200559A209AEEEFFFE7859194918B3FEC
:103190009C4D19F481E08093CA0680E490E09093FE
:1031A0004B0280934A0282E390E09093490280931D
:1031B00048020E94E91D20E530E040E050E00E9416
:1031C0000D1EDC01CB014E96A11DB11D909347024F
:1031D00080934602109243021092420210924502DE
:1031E0001092440281E090E090934102809340026B
:1031F00081EC80937C0085B1806F85B984B1877E36
:1032000084B984B1876E84B95E9A5F988AB1806D03
:103210008AB9769A6E9881B3806F81BB899880B3A2
:103220008D7080BB80E58CBD81E08DBD85E090E038
:103230000E9489115F9A85E090E00E9489115E9852
:103240005C98ECE5F1E08DE08E0F94919EBD00005E
:103250000DB407FEFDCF31968E13F7CF5C9A81E84F
:10326000809364008091650081608093650080E0B8
:103270000E94AF140E948E1187FF24C05C9885EADB
:103280008EBD00000DB407FEFDCF5C9A2E982F98DE
:103290002D988091640080628093640081E083BFF8
:1032A000889513BEFCCF2D980E948E1184788438A7
:1032B00071F00E948E118471843131F188EC90E0BC
:1032C0000E9489110E948E1182FDEDCF3AC00E94AA
:1032D000871188EC90E00E9489112F9882E090E09D
:1032E0000E94F71D8F3F29F06FEF82E090E00E946F
:1032F000FF1D84EF91E00E9489112F9A0E948E1188
:1033000084788438D9F3D5CF0E94871188EC90E077
:103310000E9489112E9882E090E00E94F71D882378
:1033200029F060E082E090E00E94FF1D84EF91E0D0
:103330000E9489112E9A0E948E1184718431D9F3D2
:10334000BDCF0E94871182E090E00E94F71D882384
:1033500019F00E94961104C0109242013E983F98C5
:1033600081E090E00E949D1282FB992490F881FFF9
:103370008CC091102E98C0EFDFEF08E010E00E94A3
:103380008E1186FF04C02E9A2F9A2D9A7EC0992006
:1033900029F0C430D10511F42E9A2F9881E00E94B3
:1033A000AF149E01D7FF04C0222733272C1B3D0BEF
:1033B00027703327CE01D7FD079663E09595879553
:1033C0006A95E1F7D7FF05C00197A801421B530B8F
:1033D0009A017C01F694FE2CEE24F794E79460E0C9
:1033E00070E03801621A730AD701A058BF4F5D011F
:1033F0008F3FBFEF9B0744F40196685A7F4F7501DA
:10340000603B710589F721C0D701A551BD4F40E050
:1034100050E08F3FEFEF9E0709F498C1FA01E60FE5
:10342000F71FE455FF4FE4916D01CA18DB08CE0C7D
:10343000DF1CF0E02F01022E01C0440C0A94EAF7D1
:10344000F60180804828408281C180E00E94AF144C
:103450008FE090E00E9489112196C931D10509F0D1
:103460008ECF992011F02F9A2D9880E991E00E943B
:1034700089110E948711E0915B06F0915C06019032
:10348000F081E02D8BE596E0099582E390E00E94C3
:1034900089110E948E118111F8CF809164008E7F76
:1034A0008093640080917A00806480937A00809198
:1034B0007A0086FDFCCFC0917800D09179000E94FF
:1034C000430B8E0120E030E0980111270027600FA8
:1034D000711F821F931F209164002160209364005C
:1034E000611571058105910511F00E94EE1DC9E17C
:1034F000C09362060E9496111092720081E090E0E3
:10350000909337028093360228EDEEE5F1E0DF017B
:103510001D922A95E9F720EF20930001C0935D01E9
:1035200021E732E030935C0120935B0190935801D6
:1035300080935701909326028093250282E4809322
:10354000C00081E08093C1008FEF8093D10080E8BC
:103550008093CF00E9E6F1E0C491C0933F028AE690
:1035600091E09093460180934501D0E0CC0FDD1FA0
:10357000C659DE4FCE0104969093440180934301D7
:103580003EE5E32E31E0F32E00E010E0FE01E00F17
:10359000F11F84910E94EC0BF701918380830F5FF0
:1035A0001F4FF6E3EF0EF11C0430110579F784E0AC
:1035B000809372000E949C1480E5482E512C612C4F
:1035C000712C90E0292E90E0392ED1E08FB7F8943D
:1035D000409138025091390260913A0270913B0259
:1035E0008FBF80916306242F281B822F9091640641
:1035F000992329F02093650610926406A0C090914B
:103600006206291748F48F5F891708F098C041E0D7
:1036100043BF889513BE93C0D0936406409363065E
:1036200080915E0690915F06019690935F0680936D
:103630005E060E949C1480916006809361060E9441
:103640008E118093600688E00E94BE14811105C02F
:1036500084E00E94BE14882329F080914C028823C4
:1036600009F48FC088E00E94BE14811105C084E077
:103670000E94BE14882329F080914C02823009F404
:1036800083C088E00E94BE14811105C084E00E94BE
:10369000BE14882329F080914C02833009F477C04E
:1036A00080914C02813039F480913E02843018F0D0
:1036B00053E050934C0280914C02813059F4809138
:1036C0003D02843038F080913C02813019F482E070
:1036D00080934C0280914C02813081F490913D02A4
:1036E000943008F457C090913C02911153C08093DC
:1036F0003C0210923D0210923E024CC0823069F0B2
:10370000833071F0811118C04EED5BE060E070E035
:1037100080E090E00E94D2130FC044EF55E002C059
:1037200042EF51E060E070E080E090E00E94D21350
:10373000D09302010E949F1280E00E94AF142114D6
:10374000310409F443CF0E94000040CF2115310518
:1037500081F0FA01E60FF71FE455FF4FE491F0E026
:10376000062C02C0F595E7950A94E2F7DC90ED2966
:10377000EC934F5F5F4F11964835510509F049CEE4
:103780003BCED0934C026ECF10924C027ACF109267
:103790004C0286CF8091020181110E949F1280917C
:1037A0003C02811103C04CEB5BE004C0813041F46A
:1037B0004AE95BE060E070E080E090E00E94D213B4
:1037C000E12CF12C00E110E041E0B801C7010E94BA
:1037D0009C110F5F1F4F00331105B1F79FEFE91ADE
:1037E000F90AA0E1EA16F10469F780913E0281111D
:1037F00003C048E75BE00EC0813019F446E55BE0AA
:1038000009C0823019F444E35BE004C0833041F422
:1038100042E15BE060E370E080E090E00E94D21360
:10382000C0913D02C11103C040ED5AE00EC0C1304D
:1038300019F44EE85AE009C0C23019F44CE45AE0D9
:1038400004C0C33041F44AE05AE060E070E088E729
:1038500090E00E94D2130E948E1185FF05C08091D6
:1038600001018250809301010E948E1186FF05C0E4
:10387000809101018E5F8093010180910101853665
:1038800018F0B4E6B09301012091010130E0A0E608
:10389000B0E00E94611E24E630E040E050E00E946B
:1038A0000D1E69017A01E0E1CE0ED11CE11CF11C74
:1038B000D0924B02C0924A028090480290904902F6
:1038C00040E05AE0B401C6010E94D213A090460223
:1038D000B09047028091440290914502A80EB91E13
:1038E000B0924702A0924602009142021091430218
:1038F0008091400290914102080F191F10934302DA
:103900000093420246EF59E0B801C5010E94D2136C
:10391000CA18DB08801A910ACC9CC001CD9C900D7E
:10392000900D1124889CB001899C700D700D11249C
:10393000680F791F072E000C880B990B0E94AD1E93
:103940000E943B1F0E94751E072E000C880B990BCE
:103950000E94AD1E20E030E040EA50E40E94701E5C
:1039600087FF16C0CF5FC0933D02109243021092B2
:1039700042020E94E91DA30192010E940D1EDC017A
:10398000CB014E96A11DB11D909347028093460234
:103990008091420290914302C3970CF4CDCE809166
:1039A0003E028F5F80933E021092430210924202C9
:1039B0000E94E91DA30192010E940D1EDC01CB01B2
:1039C0004E96A11DB11D9093470280934602B4CE3E
:1039D0000F931F93CF93DF938C0181E090E00E94BF
:1039E0009D1280FF32C08AE090E00E949D129FEFFE
:1039F000980F9E3F50F522E330E0D80150963C935B
:103A00002E931F9728E330E052963C932E935197C4
:103A1000CBE0D0E0D801ED91FC910190F081E02D58
:103A2000682FC8010995CE010E949D122196C131CF
:103A3000D10581F780E00E94AF1488EE93E0DF911A
:103A4000CF911F910F910C948911DF91CF911F910C
:103A50000F91089504970C94E81CEAE7F6E01382AE
:103A6000128288EE93E0A0E0B0E084839583A68381
:103A7000B78388E191E0918380838FEF9FEF9587F3
:103A80008487E7E5F6E0138212821186128680E1D0
:103A900083871086178215868AE291E0918380835E
:103AA00088E391E095838483108A1786128A118AAD
:103AB00081E0838B148A858B168A0895CF92DF92DA
:103AC000EF92FF920F931F93CF93DF931F92CDB787
:103AD000DEB7182F062FE42E862F880F8E5F99836E
:103AE0000E94F71483E00E94F714F12EC12E9981F1
:103AF000D92E8C2D8F19801798F4F601E7FE02C09D
:103B0000849101C080810E94F714182F80E00E94E8
:103B1000F7148123FFEFCF1ADF0A8111EACF01C02A
:103B200081E00F90DF91CF911F910F91FF90EF9067
:103B3000DF90CF9008958F929F92AF92BF92CF92D5
:103B4000DF92EF92FF92CF93DF93EC01688179814E
:103B50008A819B81611571058105910521F464E2DB
:103B600079ED8BE597E02DE133EF41E050E00E94E5
:103B70000D1E49015A019B01AC01A7EAB1E40E9464
:103B80002C1E6B017C01ACEEB4EFA50194010E94E8
:103B90003A1EDC01CB018C0D9D1DAE1DBF1DB7FF74
:103BA00003C00197A109B04888839983AA83BB8386
:103BB000BC01CD019F77DF91CF91FF90EF90DF9017
:103BC000CF90BF90AF909F908F9008950E949B1DC3
:103BD000089580E191E00E949B1D0895609310017B
:103BE0007093110180931201909313010895F99934
:103BF000FECF92BD81BDF89A992780B50895262FF2
:103C0000F999FECF1FBA92BD81BD20BD0FB6F894C1
:103C1000FA9AF99A0FBE01960895052E97FB1EF4A5
:103C200000940E94241E57FD07D00E943F1E07FCEF
:103C300003D04EF40C94241E509540953095219558
:103C40003F4F4F4F5F4F08959095809570956195C8
:103C50007F4F8F4F9F4F08950E94611EA59F900D2B
:103C6000B49F900DA49F800D911D11240895B7FF5E
:103C70000C942C1E0E942C1E821B930B0895A1E213
:103C80001A2EAA1BBB1BFD010DC0AA1FBB1FEE1FD6
:103C9000FF1FA217B307E407F50720F0A21BB30B21
:103CA000E40BF50B661F771F881F991F1A9469F79D
:103CB00060957095809590959B01AC01BD01CF01F9
:103CC0000895A29FB001B39FC001A39F700D811DF5
:103CD0001124911DB29F700D811D1124911D089515
:103CE0000E94E81E08F481E008950E947C1E6894FA
:103CF000B1110C942F1F08950E94141F88F09F5734
:103D000098F0B92F9927B751B0F0E1F0660F771FFF
:103D1000881F991F1AF0BA95C9F714C0B13091F0F5
:103D20000E942E1FB1E008950C942E1F672F782F4C
:103D30008827B85F39F0B93FCCF3869577956795BA
:103D4000B395D9F73EF490958095709561957F4F26
:103D50008F4F9F4F0895E89409C097FB3EF49095CC
:103D60008095709561957F4F8F4F9F4F9923A9F054
:103D7000F92F96E9BB279395F695879577956795E3
:103D8000B795F111F8CFFAF4BB0F11F460FF1BC027
:103D90006F5F7F4F8F4F9F4F16C0882311F096E9BA
:103DA00011C0772321F09EE8872F762F05C0662368
:103DB00071F096E8862F70E060E02AF09A95660F21
:103DC000771F881FDAF7880F9695879597F90895DA
:103DD000990F0008550FAA0BE0E8FEEF161617061C
:103DE000E807F907C0F012161306E407F50798F084
:103DF000621B730B840B950B39F40A2661F0232B9D
:103E0000242B252B21F408950A2609F4A140A69518
:103E10008FEF811D811D089557FD9058440F551F48
:103E200059F05F3F71F04795880F97FB991F61F03C
:103E30009F3F79F087950895121613061406551FB3
:103E4000F2CF4695F1DF08C0161617061806991F1F
:103E5000F1CF86957105610508940895E894BB2714
:103E600066277727CB0197F9089519F416F40C9477
:103E7000891F0C947B1F0E94141FB8F39923C9F368
:103E8000B6F39F57550B87FF0E948C1F0024A0E6B6
:103E900040EA900180585695979528F4805C660F0B
:103EA000771F881F20F026173707480730F4621B5A
:103EB000730B840B202931294A2BA695179407945C
:103EC000202531254A2758F7660F771F881F20F0D5
:103ED00026173707480730F4620B730B840B200D4D
:103EE000311D411DA09581F7B901842F9158880F8C
:103EF0009695879508959F3F31F0915020F48795CE
:103F000077956795B795880F911D9695879597F941
:103F100008959FEF80EC089591505040660F771FF1
:103F2000881FD2F7089597FB072E16F4009407D048
:103F300077FD09D00E94A71F07FC05D03EF490959D
:103F400081959F4F0895709561957F4F0895AA1BA5
:103F5000BB1B51E107C0AA1FBB1FA617B70710F074
:103F6000A61BB70B881F991F5A95A9F780959095A6
:103F7000BC01CD010895EE0FFF1F0590F491E02DD7
:103F8000099481E090E0F8940C94C61FF894FFCF58
:103F9000F032018000E1000000000000FFFFFFFFA1
:103FA0000100000000000000E6124D130713FC1290
:103FB000DD140B13291300000000B211110B3E0B8E
:103FC0003D0BE81CFCFF00002A1D00C180810000A1
:023FD0000000EF
:00000001FF
